S01300006763326B5F7063627878782E73726563AE
S31500010000C0750220412C0400ED2A04003D2C040099
S315000100103D2C04003D2C04003D2C04003D2C040025
S315000100200000000000000000000000003D2C04005C
S315000100303D2C0400000000003D2C04003D2C040072
S3150001004085FE0300FDFD030011FF03004DFF0300C4
S31500010050B90A0400E90204001527040049F5030062
S31500010060E5F50300BDF6030031F70300B90A040004
S3150001007049F50300E5F50300BDF6030031F703007A
S31500010080E11D0400B51E040029200400B51E04006C
S31500010090292004000D1304009D12040081080400A8
S315000100A035220400B90A040069ED030099ED030045
S315000100B0CDED0300EDED0300810204000000000018
S315000100C00000000000000000000000000000000029
S315000100D00000000000000000000000000000000019
S315000100E00000000000000000000000000000000009
S315000100F000000000000000000000000000000000F9
S31500010400F1FFFFFFFBFDFFFFFCFFFFFFFFFFFFFF0C
S31500010410FCFFFFFFFFFFFFFFFCFFFF00FFFFFF00E9
S31500010420FCFF0F20FFFF0F20FCFF7F40FFFF7F40F7
S31500010430FCFF0D40FFFF0D40FFFFFFFFFFFFFFFF2A
S31500010440FFFFFFFFFFFFFFFFFFFFFFFFFFFFFFFFB5
S31500010450FFFFFFFFFFFFFFFFFFFFFFFFFFFFFFFFA5
S31500010460FFFFFFFFFFFFFFFFFFFFFFFFFFFFFFFF95
S31500010470FFFFFFFFFFFFFFFFFFFFFFFFFFFFFFFF85
S31500010480FFFFFFFFFFFFFFFFFFFFFFFFFFFFFFFF75
S31500010490FFFFFFFFFFFFFFFFFFFFFFFFFFFFFFFF65
S315000104A0FFFFFFFFFFFFFFFFFFFFFFFFFFFFFFFF55
S315000104B0FFFFFFFFFFFFFFFFFFFFFFFFFFFFFFFF45
S315000104C0FFFFFFFFFFFFFFFFFFFFFFFFFFFFFFFF35
S315000104D0FFFFFFFFFFFFFFFFFFFFFFFFFFFFFFFF25
S315000104E0FFFFFFFFFFFFFFFFFFFFFFFFFFFFFFFF15
S315000104F0FFFFFFFFFFFFFFFFFFFFFFFFFFFFFFFF05
S3150001050010B5054C237833B9044B13B10448AFF346
S3150001051000800123237010BD781DFE1F000000001E
S31500010520D01E050008B5034B1BB103490348AFF3C1
S31500010530008008BD000000007C1DFE1FD01E0500C6
S3150001054070B58268037C1468B0F83C5203EB430330
S3150001055004EB830415B34FF0000E01F1020C724651
S315000105602588438F5B1B1EFA83F3656835F813E014
S315000105704FEA1E2E0CF802EC666836F813300CF8BA
S31500010580013CB0F83C320132D2B29A4265469646F7
S315000105900CF1020CE4DB6D1AE8B270BD284670BDA1
S315000105A038B504460025A26040F20722C4E90335A6
S315000105B02160A28208462571064984F83E5200F060
S315000105C0BDFF04F1180000F085FE034B20461C60B8
S315000105D038BD00BFC5090100941DFE1F10B4044CAF
S315000105E00271615C41755DF8044B80F83E327047DB
S315000105F0988D0400014B1870704700BFB00AFE1FAA
S315000106002DE9F04390F838C00CF1FF330F2B09D8D0
S31500010610DFE803F052520C0C080C08080808080819
S315000106200808080C00263046BDE8F08383681F7968
S31500010630002FF7D0504A1B681478002216469646BA
S31500010640997A14B9042900F0908003297AD00229F5
S315000106507CD1002C2546A1460CBFA0464FF00008D0
S31500010660197A29B1BCF1040F73D0BCF1030F5ED026
S31500010670597AB9B1BCF1100F59D0BCF1060F11D19D
S31500010680B9F1000F0ED0458F19888D420AD3B0F803
S315000106903C824544B3F8028041448D42DCBF80F878
S315000106A010E0012601325FFA82FEBE4503F10C031A
S315000106B0C6D33046BDE8F083C3681D79002DB1D09D
S315000106C02D4A1B681778997A00221646144697B95F
S315000106D0042928D0012905D021B9197A11B1BCF113
S315000106E0010F46D00132D4B2AC4203F10C039AD2C7
S315000106F0997A002FECD00129EED1197A0029F1D08F
S31500010700BCF1020FEED1B0F83AE019887145E9D88B
S31500010710B0F83C127144B3F802E001397145DCBF0F
S3150001072044740126DEE7197A0029ECD1DAE7002DB7
S31500010730A9D101325FFA82FEBE4503F10C03FFF433
S315000107407FAFB6E7A0460025A94689E74FF0000826
S31500010750F9E7B8F1000F96D101325FFA82FEBE4584
S3150001076003F10C03FFF46CAFA3E70125A846A946E4
S3150001077076E7002FC7D1B5E7B00AFE1FF0B500F145
S31500010780180683B0044630468DF8071000F0CAFDFE
S31500010790627D0023824273EB010232D2A37430469A
S315000107A000F0C0FD637D0025834275EB010380F0F7
S315000107B0CA8022799DF807309A4240F0C480012709
S315000107C04FF40072A7742946658704F13C0034F0A2
S315000107D031FA784B3946784F1D704FF6FF720DF19D
S315000107E007003A8002F048FC744AE37C38801580A1
S315000107F0A4F83C52658743BB304600F06BFD03B05D
S31500010800F0BDA37C062B29D16A496C4D0A782B8849
S31500010810D0000A780132D2B20A7003FA00F29DF8CA
S315000108200730097813439BB201292B8040F28B8054
S315000108305BBA9AB22B80604B1B88934200F0B3805F
S31500010840E37C0022A274002BD6D004F1280000F02C
S3150001085041FD304600F03EFD03B0F0BD002B9ED0B9
S31500010860554D01212A880DF1070002F005FCA37CF4
S315000108702880062BE4D801A252F823F09F07010035
S315000108804B090100990801001F090100C708010071
S31500010890CF08010009080100464A618F1378DB0081
S315000108A001FA03F39DF807101943137861870133A1
S315000108B0DBB213701378012B45D994F83830002137
S315000108C0062B117065D10522E37CA27493E7394AA0
S315000108D013781178107803F0FE0323440130C0B277
S315000108E0107001F00101988FC90088409DF807102A
S315000108F001439987B4F83C321178B3EB510F94F860
S31500010900383001D8102B04D0062B1CD11378022BBA
S3150001091019D1002306211370A174E37C6BE7254AE4
S31500010920B4F83C121378DB00DBB201FA03F39DF84D
S31500010930071019431378A4F83C120133DBB2137084
S315000109401378012B16D8E37C55E79DF8073084F818
S315000109503830102B05D94FF480720123628223753A
S3150001096073E7174A22FA03F3DB07F4D50222E37C85
S31500010970A27440E7002320461370FFF741FE60B1E1
S3150001098094F83820E37C102A0CBF04220622A274B4
S3150001099031E70322E37CA2742DE74FF48072022330
S315000109A06282237551E74FF48072072362822375B1
S315000109B04BE700BFA41DFE1FA21DFE1FA01DFE1FAB
S315000109C05E000100F8B5094F3B686BB10D4659B1A0
S315000109D00646002400E03B68315D01341846E4B266
S315000109E0FFF7CCFEAC42F6DBF8BD00BF941DFE1F3F
S315000109F08268037C30B51468B0F83C2203EB4303EC
S31500010A0004EB8304B2B1002365681946428FB4F83A
S31500010A1000E000EB410CA2EB0E0211FA82F2BCF8E7
S31500010A203C1025F812100133B0F83C22DBB2934298
S31500010A301946EBDB30BD00BF2DE9F04F83B09A427A
S31500010A40019345D3428F1C46002B3DD0C36889468E
S31500010A501968437C03EB430301EB830A09EB0403A7
S31500010A6000934FF0010813468646BAF80060BEF8B7
S31500010A703CC2DAF80400F7B294440022DF1B1546A3
S31500010A80991B48BF0731C1F3CF01BC18415C04F083
S31500010A90070403F1010B41FA04F4E1071FFA8BF392
S31500010AA008FA02FB44BF45EA0B05EDB2634502F1C4
S31500010AB0010201DA082AE3D109F8015B009A91459E
S31500010AC002D0BEF83A20D0E7019803B0BDE8F08F16
S31500010AD0002003B0BDE8F08F10B584B090F838302F
S31500010AE00179027D8DF80410044663F07F0303212A
S31500010AF001A88DF805308DF8062002F0A9FA43BA4F
S31500010B009BB24FEA132C20688DF80830052201A903
S31500010B108DF807C000F0E0FC04B010BD70B590F888
S31500010B2038200179C2B0531E04468DF808108DF89D
S31500010B3009200F2B09D8DFE803F0373711110853C5
S31500010B400808080808080808084A0221237D072B17
S31500010B5014D02046FFF7C0FF42B070BDB0F83C325A
S31500010B605B00FD2B8DF80A3058D80DF10B01FFF70C
S31500010B70E7FC237D0330072BC1B2EAD10D46AA1C3F
S31500010B8089B26E1CD2B202A8019202F061FA02ABDE
S31500010B9040BA80B29855000A5855019A20681946FC
S31500010BA000F09AFC42B070BDB0F83C325A071BBF48
S31500010BB0DB080133C3F3C703DBB20DF10B01FD22E1
S31500010BC08DF80A30FFF738FF0330C1B2BEE7FFF7F1
S31500010BD00FFF037D072BBCD1428FB0F83C320EE0EC
S31500010BE08268438F1268818F908912691B1A9BB2A2
S31500010BF022F81310237D072BABD1628FA38F8DF8BB
S31500010C000B20110A06251A0A8DF80A108DF80C20F8
S31500010C108DF80D30082207262946B4E7032195E70A
S31500010C20C37C03B9704710B50446283000F07AFB3F
S31500010C30042871F100030AD394F83E322BB1237DC7
S31500010C40072B204604D0FFF747FF0023E37410BDAE
S31500010C50FFF764FF044AD2E90031013341F1000193
S31500010C60C2E90031F1E700BF981DFE1F0023C0E96C
S31500010C701013C0E91233C0E91433704701292DE975
S31500010C80F04755EC104B57EC116B824610D069B901
S31500010C90D0E9000132F0BAFA22462B4632F0ECFADC
S31500010CA032463B4632F032F9CAE90001BDE8F08727
S31500010CB010EE100A00220023294659EC128B32F05D
S31500010CC06BFDC0B142464B46DAE9008940464946CA
S31500010CD032F04EFD78B132463B464046494632F047
S31500010CE013F922462B4632F0F1FB32F095FECAE9A2
S31500010CF00001BDE8F0874FF0FF324FF0FF33CAE93C
S31500010D000023BDE8F08700BF90F814C003684FF0D8
S31500010D10FF3202FA0CF2BCF1080F23EA020308D8EB
S31500010D20428A12F007004FEAD20218BF83408B5461
S31500010D307047BCF1100F0AD8428AD208C3F3072CB8
S31500010D408B54438A01EBD30181F801C07047BCF192
S31500010D50200F18D8428A1BBAD2084FEA136C01F841
S31500010D6002C0428A01EBD2024FEA134C82F801C05B
S31500010D70428A01EBD2024FEA132C82F802C0428A60
S31500010D8001EBD201CB70704700234B7190F80EC076
S31500010D9081F806C001220B600A71837A9B0603F073
S31500010DA0E0530B60027C43EA02430B60427C43EA58
S31500010DB002230B60C27A13430B6070470022416025
S31500010DC002808270704700BF99420ED8F8B50C4672
S31500010DD01E460746D5B2E1B2786800232A46013499
S31500010DE001F054FAA642F6D2F8BD70479A420ED8DF
S31500010DF0F8B514461E460746CDB2E2B2786800231E
S31500010E002946013401F042FAA642F6D2F8BD7047EE
S31500010E102DE9F047DDF820A0534515D89846074639
S31500010E2089461546A9450BD85FFA88F64C46012333
S31500010E30E1B278681C44324601F028FAA542F6D29E
S31500010E4008F10108C245EDD2BDE8F0872DE9F0476A
S31500010E509942DDF8208089461F460546144617D873
S31500010E605FFA82FA0E46F1B26868002352460136ED
S31500010E7001F00CFAB742F6D25FFA88FA4E46F1B2A1
S31500010E80686800235246013601F000FAB742F6D2ED
S31500010E90444515D85FFA89F92646F2B268680023F7
S31500010EA04946013601F0F2F9B045F6D2FFB2E2B297
S31500010EB0686800233946013401F0E8F9A045F6D205
S31500010EC0BDE8F08700B583B000223F2300931146A9
S31500010ED07F23FFF7BBFF03B05DF804FB017042708F
S31500010EE0704700BF1F292DE9F84F074657DDA1F1CD
S31500010EF020095FFA89F101EB810001EB4009002A23
S31500010F004BD12C4A01EB810001EB40011144002B2E
S31500010F1091F80AA0914414BF4FF0800B4FF0000BDB
S31500010F204FF00008BAF1000F26D000245E46802556
S31500010F3021460FE0387842440144D2B27868C9B2FA
S31500010F4001F0A4F90134E1B28A454FEA55054FEAA9
S31500010F50560611D999F800202A40B2424FF00003F3
S31500010F607A78E7D13B78786842441944D2B20123B2
S31500010F70C9B201F08BF9E5E708F101085FFA88F8D3
S31500010F80B8F10A0F09F10109CCD13B785344DBB220
S31500010F907A2B08D83B70BDE8F88F074AB2E74FF0C5
S31500010FA000094946ABE77B7801220C333A707B7026
S31500010FB0BDE8F88FC0910400A08D04000023FFF75F
S31500010FC091BF00BF70B50C4691F9001051B10646AC
S31500010FD0154600232A463046FFF784FF14F9011F00
S31500010FE00029F6D170BD00BF2DE9F04F87B09DF8FD
S31500010FF0404001919DF84410059404930291002A02
S3150001100040D003EB040B5FFA8BF3009300230746F2
S3150001101091460393049B5BB3019BDDF814B003F186
S31500011020FF3A029B03F107081AF8015F002607241D
S3150001103001E0013C0DD325FA04F3DB07F9D5A8EB52
S315000110400401786800235A46C9B201F01FF9013C30
S31500011050F1D20136F6B2B145E9D1009B0BF101029D
S315000110605FFA82FB9B45DFD1019B049A13440193EE
S31500011070039A029B0132D2B20833DBB29145039245
S315000110800293C7D107B0BDE8F08F00BF406801F0F9
S315000110903BB900BF2DE9F843054608460C461646FE
S315000110A034F022FD10F0FF0095F800802ED00138B3
S315000110B054FA80F11D4F1E4804F1FF3E002205E05F
S315000110C09CF80A3071451A44D2B21BD01EF901CFE1
S315000110D0BCF11F0FACF1200C4FF00003C8BF5FFA43
S315000110E08CF303EB830C03EB830903EB4C0C03EB4F
S315000110F0490384443B44002EE2D09B7A71451A444D
S31500011100D2B2E3D1A8EB52085FFA88F885F80080DD
S3150001111094F9001041B1002332462846FFF7E2FE5A
S3150001112014F9011F0029F6D1BDE8F883A08D04004A
S31500011130C09104002DE9F843054608460C461646BB
S3150001114034F0D2FC10F0FF0095F800802ED0013863
S3150001115054FA80F11D4F1E4804F1FF3E002205E0BE
S315000111609CF80A3071451A44D2B21BD01EF901CF40
S31500011170BCF11F0FACF1200C4FF00003C8BF5FFAA2
S315000111808CF303EB830C03EB830903EB4C0C03EBAE
S31500011190490384443B44002EE2D09B7A71451A44AC
S315000111A0D2B2E3D1A8EB02085FFA88F885F800808D
S315000111B094F9001041B1002332462846FFF792FE0A
S315000111C014F9011F0029F6D1BDE8F883A08D0400AA
S315000111D0C091040010B504469DF808002160002165
S315000111E02076627604F10800A376E17600F072F8C3
S315000111F0204610BD38B500F108050446284600F022
S3150001120091F850EA010300D138BD284600F062F892
S31500011210237E012B15D08BB92368984770B9E37EDD
S31500011220A27E0133DBB29A42E376EDD2237E00221F
S31500011230013B18BF0123E276237638BD0023E3760E
S3150001124038BD236898470028E9D1237E002BE3D0D7
S31500011250F4E700BF007E7047B8B103468088B3F853
S3150001126008C0421C92B2944598BF0022B3F806C04A
S31500011270944507D010B41C6821545DF8044B9A803C
S31500011280002070476FF0010070474FF0FF30704744
S31500011290A8B1A1B10346C0889A88824212D010B47F
S315000112A0B3F808C01C68421C92B2205C08709445D1
S315000112B098BF002200205DF8044BDA8070474FF09A
S315000112C0FF3070476FF00200704700BF08B100237E
S315000112D04360704730B1044BD3E90023C0E90023D2
S315000112E001210172704700BFA81DFE1F08B100232E
S315000112F00372704780B1037A7BB109490268D1E96B
S31500011300003110B54468981A61EB04014FF47A7202
S31500011310002332F049FB10BD70471846704700BFE5
S31500011320A81DFE1F70B1037A5BB107490268D1E9B6
S31500011330003110B44468981A61EB04015DF8044B5E
S315000113407047184601467047A81DFE1F044AD2E998
S315000113500031013341F10001C2E90031704700BF9C
S31500011360A81DFE1F007A7047704700BF0149024859
S315000113702EF0F2BE701205008C60FE1FE9B110B5A9
S315000113808AB00C460E4801A92EF018FE10B10120B4
S315000113900AB010BDDDE9052301992170029961703A
S315000113A001320399A17062710499079A217103F2BE
S315000113B06C73E380E2700AB010BD0120704700BF74
S315000113C08C60FE1F38B50D4C054684460FCCACE843
S315000113D00F0094E80F008CE80F000948FFF776FF2D
S315000113E0084B094800224FF487711A702FF020F933
S315000113F0294606482EF0A6FA284638BD701405007F
S31500011400B40AFE1FAF1EFE1F645FFE1FA061FE1F12
S3150001141010B504460848FFF759FF084B0848002253
S315000114204FF487711A702FF003F921460548BDE87C
S3150001143010402EF087BA00BFB40AFE1FAF1EFE1F72
S31500011440645FFE1FA061FE1F70B5154682B00122C2
S3150001145001AB0646084611462EF00EFC184B019AC2
S315000114605B68184C1A6001A917482EF027FA0FCCB1
S31500011470B446ACE80F0094E80F00012D8CE80F008C
S3150001148016D0022D19D0B5B10F482EF08BF90F48A1
S31500011490FFF71CFF0E4B0F4800224FF487711A709D
S315000114A02FF0C6F8314608482EF04CFA02B070BD4E
S315000114B00223B370E8E7B570E6E70323B370E3E709
S315000114C09014050070140500A061FE1FB40AFE1FEA
S315000114D0AF1EFE1F645FFE1F70B5134814460D460E
S315000114E001224FF487712FF0A3F85CB1621E0F4EF3
S315000114F06C1E15FA82F514F8011F3046FFF7ACFE93
S31500011500AC42F8D10A4C23780BB1002070BD0949D1
S315000115100648FFF7BDFE0749074801222EF0AAF942
S3150001152001232370002070BD645FFE1FB40AFE1FF5
S31500011530AF1EFE1FB51EFE1FA061FE1F014B002040
S3150001154019607047B01EFE1F38B50C4C0C490D488A
S3150001155000252570FFF79CFE033007D008490A488D
S3150001156001222EF087F90123237038BD2A46074848
S31500011570BDE838404FF487712FF05AB8AF1EFE1FF1
S31500011580B41EFE1FB40AFE1FA061FE1F645FFE1F8C
S315000115900379042B02D0022B0FD0704700B5084BFC
S315000115A082681B6883B08DF807201BB101210DF1FC
S315000115B00700984703B05DF804FBFFF7C5BF00BFFE
S315000115C0B01EFE1F38B5054D0549044628462FF0C5
S315000115D0F7F828462FF034F9204638BDEC5FFE1F98
S315000115E00812050010B5054C054920462FF0E8F80C
S315000115F02046BDE810402FF023B900BFEC5FFE1F67
S3150001160008120500014B1960704700BFB81EFE1F86
S315000116104368052B00D0704700B583B0054869467D
S315000116202FF06AF9044B1B680BB10098984703B079
S315000116305DF804FB4061FE1FB81EFE1F054A064BFE
S31500011640D2F89C11054A91F82C10462908BF134679
S315000116500360704700B07F40FFFF0700FFFF0F00E8
S315000116602DE9F04F8DB091469B4600220023CDE92E
S3150001167004230190002304A88A468DF81830FFF749
S3150001168029FEDFF878801B4F1B4E0DF10F014046F6
S315000116902FF04EFA08A9054638462CF085FF044678
S315000116A004A8FFF727FE0346052B30460AD82EF07D
S315000116B0A9FF55EA0403E8D19DF80F209DF82030D3
S315000116C01343E2D1B9F1000F10D0019B1B685345BA
S315000116D008D95A465146484633F09EFA00200DB0C5
S315000116E0BDE8F08F05200DB0BDE8F08F02200DB0EA
S315000116F0BDE8F08FD061FE1F8C62FE1F4060FE1FA9
S31500011700054BD3F89C3193F82C30462B14BF4FF47C
S3150001171000204FF48010704700B07F4002464FF41E
S31500011720006101482EF084BF645FFE1F02464FF43C
S31500011730C06101482EF07CBF645FFE1F024640F285
S31500011740046101482EF074BF645FFE1F024640F239
S31500011750056101482EF06CBF645FFE1F024640F230
S315000117600E6101482EF064BF645FFE1F024640F21F
S315000117700F1101482EF05CBF645FFE1F024640F266
S315000117800D1101482EF054BF645FFE1F02464FF44F
S31500011790867101482EF04CBF645FFE1F024640F27F
S315000117A00B1101482EF044BF645FFE1F024640F252
S315000117B0093101482EF03CBF645FFE1F024640F22C
S315000117C0022101482EF034BF645FFE1F03680BB18E
S315000117D000201847704700BF03680BB10120184766
S315000117E0704700BF0368084603B11847704700BF3A
S315000117F038B52E4D2E4B0360044601224FF400618D
S3150001180028462EF015FF2B4B636001224FF4C06171
S3150001181028462EF00DFF284BA360012240F20461F9
S3150001182028462EF005FF254BE360012240F20561B3
S3150001183028462EF0FDFE224B2361012240F20E6165
S3150001184028462EF0F5FE1F4B6361012240F20F116F
S3150001185028462EF0EDFE1C4BA361012240F20D112C
S3150001186028462EF0E5FE194BE36101224FF48671FD
S3150001187028462EF0DDFE164B2362012240F20B11A3
S3150001188028462EF0D5FE134B6362012240F2093140
S3150001189028462EF0CDFE104BA362012240F2022112
S315000118A028462EF0C5FE204638BD00BF645FFE1FE8
S315000118B01D1701002D1701003D1701004D170100ED
S315000118C05D1701006D1701007D1701008D170100DD
S315000118D09D170100AD170100BD17010000B583B0CA
S315000118E00DF1070240F20B5105482EF093FE9DF8CB
S315000118F00700003818BF012003B05DF804FB00BFE4
S31500011900645FFE1F00B583B00DF1070240F20C5172
S3150001191005482EF07FFE9DF80700003818BF01200C
S3150001192003B05DF804FB00BF645FFE1F00B583B022
S315000119300DF107024FF4837105482EF06BFE9DF8F9
S315000119400700003818BF012003B05DF804FB00BF93
S31500011950645FFE1F00B583B00DF1070240F2071167
S3150001196005482EF057FE9DF80700003818BF0120E4
S3150001197003B05DF804FB00BF645FFE1F00B583B0D2
S315000119800DF107024FF4806105482EF043FE9DF8E4
S315000119900700003818BF012003B05DF804FB00BF43
S315000119A0645FFE1F00B583B00DF107024FF482712B
S315000119B005482EF02FFE9DF80700003818BF0120BC
S315000119C003B05DF804FB00BF645FFE1F00B583B082
S315000119D00DF1070240F2051105482EF01BFE9DF898
S315000119E00700003818BF012003B05DF804FB00BFF3
S315000119F0645FFE1F00B583B00DF1070240F202419C
S31500011A0005482EF007FE9DF80700003818BF012093
S31500011A1003B05DF804FB00BF645FFE1F2DE9F04FC4
S31500011A2085B0044601252A46009504F1200B40495C
S31500011A301423FFF7CFFB04F1400A2A4600953D49DE
S31500011A4014235846FFF7C6FB04F1600900952A46A0
S31500011A50394914235046FFF7BDFB04F18008009570
S31500011A602A46364914234846FFF7B4FB04F1A0077A
S31500011A7000952A46324914234046FFF7ABFB0095F1
S31500011A802A46304914233846FFF7A4FB04F1C00661
S31500011A9004F1E00000952A4603902B4914233046B1
S31500011AA0FFF798FB2A460095039D284914232846EB
S31500011AB0FFF790FB214604F5807000F069FA59465C
S31500011AC004F58C7000F064FA514604F5987000F044
S31500011AD05FFA494604F5A47000F05AFA414604F546
S31500011AE0B07000F055FA394604F5BC7000F050FAB2
S31500011AF0314604F5C87000F04BFA294604F5D47056
S31500011B0000F046FA002304F5E470C4F8C031C4F8C5
S31500011B10C43184F8D831C4F8D931C4F8DD3184F838
S31500011B20E131FFF7D7FB204605B0BDE8F08F00BFD6
S31500011B30F5190100CD190100A51901007D19010052
S31500011B40551901002D19010005190100DD180100C3
S31500011B50034671B190F8E121012A08D802F170001B
S31500011B60013243F82010002083F8E1217047032059
S31500011B7070470220704700BF00B583B02A480DF1B7
S31500011B80070240F202412EF045FD9DF807301BB1D8
S31500011B90012003B05DF804FB23480DF1070240F272
S31500011BA005112EF037FD9DF80730002BF0D11E48A8
S31500011BB00DF107024FF482712EF02CFD9DF80730CE
S31500011BC0002BE5D118480DF107024FF480612EF084
S31500011BD021FD9DF80730002BDAD113480DF10702DC
S31500011BE040F207112EF016FD9DF80730002BCFD1DC
S31500011BF00D480DF107024FF483712EF00BFD9DF890
S31500011C000730002BC4D108480DF1070240F20C51F0
S31500011C102EF000FD9DF80730002BB9D103B05DF819
S31500011C2004EBFFF75BBE00BF645FFE1F00B583B028
S31500011C300DF1070240F2024105482EF0EBFC9DF83A
S31500011C400700003818BF012003B05DF804FB00BF90
S31500011C50645FFE1F2DE9F843044608469DF820906F
S31500011C600E461746984600F0E3F9022805D00328E8
S31500011C7033D0012817D0BDE8F88394F8E1516DB14E
S31500011C8000273A467032013754F82230404613B1E4
S31500011C90984794F8E151FAB29542F3D83046BDE837
S31500011CA0F84300F0C7B994F8E151002DF6D04FF092
S31500011CB000084346703308F1010854F823303846CA
S31500011CC013B1984794F8E1515FFA88F39D42F1D830
S31500011CD03046BDE8F84300F0ADB994F8E151002D66
S31500011CE0DCD000273B467033013754F82330484691
S31500011CF013B1984794F8E151FBB29D42F3D83046AF
S31500011D00BDE8F84300F096B92DE9F0418046084652
S31500011D109DF818700C4616461D4600F089F90128F3
S31500011D2007D0204600F084F9022820D00020BDE823
S31500011D30F081304600F07CF90128F2D198F8E121D2
S31500011D406AB100273B467033013758F823302846DD
S31500011D5013B1984798F8E121FBB29A42F3D820468D
S31500011D6000F068F9304600F065F90120DFE73046FA
S31500011D7000F05EF90228D9D198F8E121002AEED0C7
S31500011D8000252B467033013558F82330384613B1F8
S31500011D90984798F8E121EBB29A42F3D8DFE700BF02
S31500011DA02DE9F04F8FB000F5987300F5A47ACDE9CF
S31500011DB0083A039300F5B07304930A9300F5BC73D4
S31500011DC000F5807600F58C7B00F5C87905930B93B9
S31500011DD007AF00F5D4730446CDE9066BCDF8309014
S31500011DE002930D930EADB846304601E058F8040B48
S31500011DF000F0D8F8A845F9D194F8D881B8F1010FC7
S31500011E000BD0B8F1020F5DD0B8F1000F3DD0002321
S31500011E1084F8D8310FB0BDE8F08F04F5E478404678
S31500011E20FFF780FA642871F1000324BF022384F8C6
S31500011E30D831304603E0AF420AD057F8040B00F020
S31500011E40EFF80028F7D04046FFF744FAAF42F4D145
S31500011E50112359460093524610232046FFF754FF9B
S31500011E601323514600934A4612232046FFF74CFF9F
S31500011E7015230093029A142349462046FFF744FF8F
S31500011E800028C4D10FB0BDE8F08F04F2D91504F2D1
S31500011E90E118C5F1160A4FF0010907E02E78002E68
S31500011EA056D001354545B5D057F8046B304600F09C
S31500011EB0BFF8002863D1304600F0B2F80028EDD112
S31500011EC02870EEE71E2331460093204608230022A0
S31500011ED0FFF7C0FE1F23594600932046092301221E
S31500011EE0FFF7B8FE202303990093424620460A23B2
S31500011EF0FFF7B0FE21235146009320460B23032210
S31500011F00FFF7A8FE22230499009320460C230422FE
S31500011F10FFF7A0FE23230599009320460D230522F2
S31500011F20FFF798FE24224946009220460E230622F8
S31500011F30FFF790FE2523009302990F2307222046DF
S31500011F40FFF788FE002384F8D8310FB0BDE8F08F83
S31500011F5094F8E1210AEB050B5FFA8BFB33465AB184
S31500011F607033013654F82330584613B1984794F824
S31500011F70E121F3B29A42F3D885F8009091E704F58E
S31500011F80E470FFF7A7F9012384F8D83142E700BFCF
S31500011F9010B500230160838004460830FFF79AF9E3
S31500011FA0204610BD38B5457905B138BD04460068EF
S31500011FB0FFF720F92379012B04D0022B1ED07BB128
S31500011FC0657138BD04F10800FFF7ACF940F2D17331
S31500011FD0984271F100031AD340F20223A38038BD5F
S31500011FE020686371FFF736F90028DED101232371DA
S31500011FF004F10800BDE83840FFF76CB92068FFF727
S3150001200029F90128D1D14FF44073A38038BD206846
S31500012010FFF720F90128C8D14FF48073A38038BD9A
S315000120200079A0F10100B0FA80F04009704700BFC5
S315000120304079704700234371704700BF024640F262
S31500012040013101482EF0F4BA645FFE1F024640F2E8
S31500012050023101482EF0ECBA645FFE1F024640F2DF
S31500012060033101482EF0E4BA645FFE1F02464FF4C5
S31500012070417101482EF0DCBA645FFE1F024640F250
S31500012080053101482EF0D4BA645FFE1F024640F2C4
S31500012090063101482EF0CCBA645FFE1F024640F2BB
S315000120A0073101482EF0C4BA645FFE1F024640F2B2
S315000120B00A6101482EF0BCBA645FFE1F024640F277
S315000120C00D7101482EF0B4BA645FFE1F024640F25C
S315000120D00C7101482EF0ACBA645FFE1F02464FF444
S315000120E0E16101482EF0A4BA645FFE1F024640F288
S315000120F0097101482EF09CBA645FFE1F024640F248
S31500012100036101482EF094BA645FFE1F024640F255
S31500012110026101482EF08CBA645FFE1F024640F24E
S31500012120016101482EF084BA645FFE1F024640F247
S315000121300B7101482EF07CBA645FFE1F02464FF414
S31500012140427101482EF074BA645FFE1F03460120F6
S315000121501B681847034600201B6818471249134A93
S3150001216010B4C0E90012124C124A1349C0E90242E6
S31500012170124A134CC0E90412124A1349C0E9064235
S31500012180124A134CC0E90812124A1349C0E90A421D
S31500012190124A134CC0E90C121249134A0264C0E9EF
S315000121A00E415DF8044B70473D2001004D200100B2
S315000121B05D2001006D2001007D2001008D200100C0
S315000121C09D200100AD200100BD200100CD200100B0
S315000121D0DD200100ED200100FD2001000D2101009F
S315000121E01D2101002D2101003D21010038B50546C3
S315000121F000232B70AB83AB770830FFF76BF80D49E3
S315000122000D482DF02DF801232B7605F11F0405F25B
S315000122101F45802220460021144432F00BFDAC42BA
S31500012220F7D1BDE838400548012240F20D312EF0C4
S31500012230FFB900BFC8120500D460FE1F645FFE1F10
S3150001224010B50023044A03700446826183838377B1
S31500012250FFF7CCFF204610BD0101001708B501228A
S3150001226040F20D3102482EF0E3F9002008BD00BF0F
S31500012270645FFE1F08B5002240F20D3102482EF0C0
S31500012280D7F9002008BD00BF645FFE1F11F0800F63
S3150001229022D13F2A20D810B54FF0010E80F818E060
S315000122A0D40802F0070C5BB900EBC41211440EFA14
S315000122B00CF291F81FC04CEA0202CA77184610BD0B
S315000122C000EBC41001440EFA0CF291F81FC02CEA7F
S315000122D00202CA77002010BD0620704764290ED875
S315000122E0084AC37EA2FB012149080A318B4204D068
S315000122F00123C176437600207047002070470120F4
S31500012300704700BFABAAAAAA38B50123037600F12C
S315000123101F0400F21F45802220460021144432F09A
S3150001232089FCAC42F7D138BDF0B583B061B1154631
S3150001233052B1867F07468EB1012E09D1174B1B7804
S315000123401BB30023837700E00126304603B0F0BDBE
S31500012350002301268377304603B0F0BD0C46B3B99E
S315000123600F48324640F20A312EF062F90B4800223C
S31500012370027007202B46009021460A482CF068FF80
S3150001238001233046BB7703B0F0BD1E46DDE70122CF
S3150001239040F20A3102482EF04BF9E7E7BC1EFE1F58
S315000123A0645FFE1FD460FE1F30B5254C2378012BD8
S315000123B083B007D0022B25D09BB1002305202370C3
S315000123C003B030BD4FF48051ADF806100023022250
S315000123D00DF10601FFF7A8FF012829D0042003B05B
S315000123E030BD184A117801F00F0161F04F018DF8E7
S315000123F0061001220DF10601FFF796FF0128EDD126
S315000124002070EBE70F4D2B78802202FB03011F3171
S315000124100123FFF789FF0128E0D12B780133DBB2D5
S31500012420072B08D82B7004200023237003B030BD7E
S3150001243002232370D2E700232B700520F4E700BFA7
S31500012440BD1EFE1FBE1EFE1F037870B50446042B7B
S315000124500BD8DFE803F022384F030B00457E002D31
S315000124604FD0002204234276037070BD334A417F68
S31500012470C07E50700023114420460122FFF754FF0D
S31500012480637F012802BF0133DBB26377012BECD9ED
S31500012490002203236277237070BD002240F20721D8
S315000124A027482EF0C5F804F10800FEF73BFF50EA75
S315000124B00103DAD02248012240F207212EF0B8F8B2
S315000124C00123237070BD1F4A017FC07E1073002354
S315000124D0114420460122FFF727FF237F012802BF6F
S315000124E00133DBB223770C2BBFD9002203232277DA
S315000124F0237070BDFFF758FF0528B6D1032323705B
S3150001250070BD00F108063046FEF70CFF47F2305366
S31500012510984271F1000308D3A37E33B12570A576E5
S315000125203046BDE87040FEF7D5BE237E002B9CD019
S31500012530002202232276237070BD00BFD00AFE1F3F
S31500012540645FFE1FC00AFE1F0379012B04BF014A07
S3150001255013707047BC1EFE1F01238376704700BFB0
S31500012560014B1870704700BFD20AFE1F11B3837961
S3150001257030B50446CBB143892568B4F804E003EBD2
S31500012580830201339BB205EB82050022A2718C46C0
S31500012590B3FBFEF20EFB123E0FCDACE80F002B682B
S315000125A0CCF80030A4F80AE030BD438902899A428A
S315000125B0E2D130BD704700BF10B504460023142296
S315000125C00C3020600449A280A371A36003482CF05B
S315000125D047FE204610BD00BF98120500A460FE1FED
S315000125E0002A38D0F0B5857987B0864600208DF867
S315000125F00700ADF805005DBBCDE902130126049283
S3150001260001AC8DF804600FCCBEF808C0DEF80040BE
S315000126100CEB8C0704EB87040FC40C9B2360B444BA
S31500012620BEF80430BEF80A201FFA8CFCBCFBF3F19D
S3150001263003FB11CC1FFA8CFC6245AEF808C002D030
S31500012640284607B0F0BD28468EF8066007B0F0BDF3
S31500012650032007B0F0BD0220704700BF002A35D025
S3150001266070B5864686B09EF806500020019055BB8F
S31500012670CDE90213049201AC0FCCBEF808C0DEF816
S3150001268000400CEB8C0604EB86040FC40CF1010C24
S31500012690BEF804300A9A22601FFA8CFCBCFBF3F2E6
S315000126A003FB12CCBEF80A301FFA8CFC6345AEF868
S315000126B008C002D0284606B070BD012328468EF810
S315000126C0063006B070BD032006B070BD022070470B
S315000126D02DE9F04F8BB09E46149B0393002A6CD0D4
S315000126E021F0FF0808F5807801EB0E0747450546FE
S315000126F00C4616464BD90023A8EB0104009323464A
S31500012700FFF7ACFF00283ED1A7EB080EBEF1FF0F85
S3150001271026443BD9824629E04FF4807307932B89DF
S31500012720AC882F68CDF8188003EB830201339BB286
S3150001273007EB82070896B3FBF4F204FB12339CB253
S31500012740BCE80F00B5F80AB00FC7A345C7F800905B
S315000127502C8102D14FF00103AB71AEF5807EBEF143
S31500012760FF0F06F5807608F580780FD9BEF5807FD4
S315000127700DF1140C16D095F80690CDF814A0B9F108
S31500012780000FC9D003200BB0BDE8F08F4446039B70
S31500012790149332467346214628460BB0BDE8F04FE6
S315000127A0FFF75CBF039B14933246734641462846A6
S315000127B00BB0BDE8F04FFFF751BF0220E3E700BFC2
S315000127C02DE9F041DFF8A48082B098F800509DF819
S315000127D0200045B1012D1FD00023052088F80030C7
S315000127E002B0BDE8F0811C461D4B0F4616461D7012
S315000127F038BB072300933346ECB1012C19483A46FE
S315000128000CBF002139462CF023FD0123052088F851
S31500012810003002B0BDE8F081114B1B783BB1B8B96D
S315000128200023042088F8003002B0BDE8F0810520BD
S3150001283002B0BDE8F081224639460A482CF008FD6F
S31500012840E3E72A4640F2031107482DF0F1FED0E7EF
S315000128502A4640F2031104482DF0EAFEE0E700BFE4
S31500012860BF1EFE1FA460FE1F645FFE1FC01EFE1F6B
S31500012870F0B54D4D2C7883B00E46032C00F29180B5
S31500012880DFE804F01E3C1202484E05233370012393
S31500012890009302231A463146FFF792FF042856D0C9
S315000128A00224204603B0F0BD414F387800286CD091
S315000128B001283DD00224002320463B7003B0F0BD21
S315000128C03B4F3C4840F2031100222DF0B1FE37493F
S315000128D03E7806230B70002E4AD0012EEAD1364BE4
S315000128E01B78002BDCD0002332483B70324640F285
S315000128F003112DF09DFE02242E70D2E72C4F2D4898
S31500012900002240F203112DF093FE28493A78330C48
S31500012910022476BA4B704E800C70F2B1012AC9D1ED
S31500012920254B1B78002BBBD000233B702C70B8E7DE
S31500012930214B1B78002BB3D00023024640F2031132
S315000129401C483B702DF074FE03232B70A9E77378A6
S3150001295013F00103A4D12B70A3E7174B17481A7084
S315000129600723009304232CF073FC01233B7098E7A3
S31500012970114A1248072300930123167032462CF0A0
S3150001298067FC01233B7002248BE711460A4A10704B
S3150001299002460720009009482CF05AFC01233B709F
S315000129A07FE700232B707BE7D01EFE1FCC1EFE1F88
S315000129B0C01EFE1F645FFE1FBF1EFE1FA460FE1F1A
S315000129C0F0B52E4D2C7883B034B1012C1DD00024E6
S315000129D02C70204603B0F0BD294F2A4E2A480B0C15
S315000129E07B7049BA032379803B70224640F203117A
S315000129F02DF01EFE33782BB3012B0BD1234A12780F
S31500012A00DAB90024204603B0F0BD1E4E347844B333
S31500012A10012C04D000242046347003B0F0BD1B4BBA
S31500012A201B78002BEDD0002717483770224640F25D
S31500012A3003112DF0FDFD2F70CBE7204634702B706E
S31500012A4003B0F0BD114A12480723009339461470AA
S31500012A50042322462CF0FCFB01232046337003B0ED
S31500012A60F0BD0A490A480C700721009121462CF055
S31500012A70EFFB01232046337003B0F0BDC81EFE1FD5
S31500012A80C41EFE1FC01EFE1F645FFE1FBF1EFE1F6B
S31500012A90A460FE1F70B58379B0F80AC086B00446FB
S31500012AA013B90389634517D02368214E0CEB8C0CAF
S31500012AB003EB8C0CBCE80F000DF1040EAEE80F0021
S31500012AC03578DCF80030CEF80030012D06D0022D25
S31500012AD018D025B30023337006B070BDDDE903328B
S31500012AE002992046FFF7C4FE0328F5D1059B0BB1D9
S31500012AF00020984701A92046FFF738FD00233370CF
S31500012B0006B070BDDDE9033202992046FFF758FF92
S31500012B100128E1D1059B002BECD09847EAE79DF807
S31500012B20043013B901233370D6E702233370D3E798
S31500012B30C11EFE1FFFF7AEBF70B586B0134C144E13
S31500012B400096032605462670FFF74AFD02A8FEF702
S31500012B50C1FB2078B04214D10E4E07E0FFF79AFF71
S31500012B6030462DF04FFD207803280AD102A8FEF742
S31500012B70D9FB0346B3F5FA7F71F100032846EDD37D
S31500012B802078013818BF012006B070BDD20AFE1F99
S31500012B90612501008C62FE1F0379012B04BF014AE6
S31500012BA013707047BF1EFE1F08B5064B186840B16B
S31500012BB0012101F05BFC40F6B833984294BF002036
S31500012BC0012008BDD41EFE1F08B5064B186840B18A
S31500012BD0002101F04BFC40F6B833984294BF002027
S31500012BE0012008BDD41EFE1F08B5064B186840B16A
S31500012BF0032101F033FC40F6B833984294BF00201C
S31500012C00012008BDD41EFE1F08B5064B186840B149
S31500012C10042101F023FC40F6B833984294BF00200A
S31500012C20012008BDD41EFE1F08B5064B186840B129
S31500012C30052101F013FC40F6B833984294BF0020F9
S31500012C40012008BDD41EFE1F08B5064B186840B109
S31500012C50012101F003FC40F6B833984294BF0020ED
S31500012C60012008BDD41EFE1F08B5064B186840B1E9
S31500012C70002101F0F3FB40F6B833984294BF0020DF
S31500012C80012008BDD41EFE1F08B5054B186830B1DA
S31500012C900E2101F0E3FBC82894BF0020012008BDE6
S31500012CA0D41EFE1F08B5054B186830B10D2101F081
S31500012CB0D5FBC82894BF0020012008BDD41EFE1FE5
S31500012CC008B5054B186830B10C2101F0C7FBC828BF
S31500012CD094BF0020012008BDD41EFE1F08B5054B78
S31500012CE0186830B10B2101F0B9FBC82894BF002048
S31500012CF0012008BDD41EFE1F08B5054B186830B16A
S31500012D000A2101F0ABFBC82894BF0020012008BDB1
S31500012D10D41EFE1F08B5054B186830B1092101F014
S31500012D209DFBC82894BF0020012008BDD41EFE1FAC
S31500012D3008B5054B186830B1082101F08FFBC8288A
S31500012D4094BF0020012008BDD41EFE1F08B5054B07
S31500012D50186830B1072101F081FBC82894BF002013
S31500012D60012008BDD41EFE1F08B5054B186830B1F9
S31500012D70062101F073FBC82894BF0020012008BD7D
S31500012D80D41EFE1F70B582B0002504460E463223BE
S31500012D90404900950122FEF71DFA3F49009532236D
S31500012DA0012204F12000FEF715FA3C490095322371
S31500012DB0012204F14000FEF70DFA3949009532234C
S31500012DC0012204F16000FEF705FA36490095322327
S31500012DD0012204F18000FEF7FDF933490095322303
S31500012DE0012204F1A000FEF7F5F9304900953223DE
S31500012DF0012204F1C000FEF7EDF92D4900953223B9
S31500012E00012204F1E000FEF7E5F92A490095322393
S31500012E10012204F58070FEF7DDF92749009532237A
S31500012E20012204F59070FEF7D5F924490095322365
S31500012E30012204F5A070FEF7CDF921490095322350
S31500012E40012204F5B070FEF7C5F91E49009532233B
S31500012E50012204F5C070FEF7BDF91B490095322326
S31500012E60012204F5D070FEF7B5F918490095322311
S31500012E70012204F5E070FEF7ADF9154900953223FC
S31500012E80012204F5F070FEF7A5F9124B20461E60EB
S31500012E9002B070BD692D01004D2D0100312D0100DB
S31500012EA0152D0100F92C0100DD2C0100C12C0100BA
S31500012EB0A52C0100892C0100692C0100492C010077
S31500012EC0292C0100092C0100E92B0100C92B010065
S31500012ED0A92B0100D41EFE1F10B50446FEF78AF980
S31500012EE004F12000FEF786F904F14000FEF782F9AD
S31500012EF004F16000FEF77EF904F18000FEF77AF92D
S31500012F0004F1A000FEF776F904F1C000FEF772F9AC
S31500012F1004F1E000FEF76EF904F58070FEF76AF938
S31500012F2004F59070FEF766F904F5A070FEF762F9F4
S31500012F3004F5B070FEF75EF904F5C070FEF75AF9B4
S31500012F4004F5D070FEF756F904F5E070FEF752F974
S31500012F5004F5F070BDE81040FEF74CB9024638B5ED
S31500012F60002322F8103B0E4D42600C21062283728B
S31500012F70C36080F8003180F8012180F802310181B7
S31500012F80044628462DF0A6FF28462DF0BBFE05492E
S31500012F9005482BF057FD0548FEF79CF9204638BD3C
S31500012FA04060FE1FA0140500D061FE1FD81EFE1F43
S31500012FB02DE9F043002087B0CDE90200CDE90400F8
S31500012FC002A8884617469946FEF784F9174E184D0A
S31500012FD00DF1070130462DF0ABFD044602A8FEF7C0
S31500012FE089F90528284607D82DF00CFB002CEFD1CE
S31500012FF09DF80730002BEBD19FB108F13F4303F554
S315000130007003B3F5004F08D24A464146384631F0BF
S3150001301003FE002007B0BDE8F083052007B0BDE838
S31500013020F083022007B0BDE8F08300BF4060FE1FB9
S315000130308C62FE1F704700BF10B503490446034862
S315000130402EF040FB204610BD00120500E45FFE1F76
S3150001305010B54FF6FF7484B00346CDE901146A46F4
S3150001306001A9044803932EF053FBBDF8000004B0F8
S3150001307010BD00BFE45FFE1F10B584B003461446C1
S3150001308001916A4601A90448CDE902432EF040FBAD
S31500013090BDF8000004B010BDE45FFE1F10B50022AC
S315000130A0044640F2037104482DF0C2FA034904486C
S315000130B02EF0ECFC204610BD645FFE1FA811050032
S315000130C0AC5FFE1F08B540F20371054800222DF0E2
S315000130D0AFFABDE80840034903482EF0D7BC00BF4C
S315000130E0645FFE1FA8110500AC5FFE1F49B330B532
S315000130F0154CA579FDB9B4F808E00EF10103238159
S3150001310023688C460EEB8E0E03EB8E0EBCE80F0089
S31500013110AEE80F00DCF800202389CEF80020A28853
S31500013120B3FBF2F102FB113362899BB29A4223810E
S3150001313003D0284630BD032030BD0123A3712846A4
S3150001314030BD0320704700BFDC22FE1F70B4144C53
S31500013150A6790EBB22892368124D02EB820C01323D
S31500013160228103EB8C0C0FCDACE80F002A68238972
S31500013170CCF80020A288B3FBF2F102FB113362897D
S315000131809BB29A42238102D0304670BC704701231C
S315000131903046A37170BC7047032070BC704700BFF6
S315000131A0D022FE1FEC22FE1F30B521B3134CA379AA
S315000131B0B4F80AE0E3B1236800200EF101020EEB38
S315000131C08E0E6281A07103EB8E0E05468C46BEE81B
S315000131D00F00ACE80F00DEF800206389CCF8002070
S315000131E0A288B3FBF2F102FB11336381284630BD9D
S315000131F023897345DFD10125284630BDD022FE1F24
S3150001320030B539B3857943898646FDB1DEF800408C
S3150001321000228EF806205A1C03EB8303AEF80A201F
S3150001322004EB83048C460FCCACE80F002368CCF882
S315000132300030BEF80A30BEF80420B3FBF2F102FBFF
S3150001324011330125AEF80A30284630BD02899A426B
S31500013250DCD1F9E70D46284630BD00BF144B9A79FB
S31500013260B3F80AC012B91A8962451FD010B51B6896
S31500013270104C0CEB8C0C03EB8C0CBCE80F000FC450
S315000132800D4BDCF800101A78216002B110BD4FF029
S31500013290010C1821A4F11002084883F800C02EF091
S315000132A0AFFB07490248FFF7ABFF10BD704700BFF0
S315000132B0DC22FE1FE826FE1FE822FE1FAC5FFE1F72
S315000132C0FC26FE1F144B9A79B3F80AC012B91A8963
S315000132D062451FD010B51B68104C0CEB8C0C03EB30
S315000132E08C0CBCE80F000FC40D4BDCF800101A78EB
S315000132F0216002B110BD4FF0010C1821A4F110029A
S31500013300084883F800C02EF07BFB07490248FFF707
S3150001331077FF10BD704700BFDC22FE1FE826FE1FA7
S31500013320E822FE1FAC5FFE1FFC26FE1F8388B3F555
S31500013330806F07D0B3F5006F11D1094B00221A70C7
S31500013340FFF7C0BF30B40569064C28686968AA68EA
S31500013350EB680FC42869206030BCFFF7F7BE7047E1
S31500013360E822FE1FEC22FE1F0849094B10B4094C46
S315000133700C600022084C1C6032205DF8044B8880EA
S315000133808A718A6098809A719A607047D022FE1F6E
S31500013390DC22FE1F0023FE1FE81EFE1F10B5044699
S315000133A000F58470FEF7FCFC94F8713B23B1BDE88F
S315000133B010400F482DF026B904F66810FFF78CFD72
S315000133C004F54670FFF740F804F5E760FFF7B2FB36
S315000133D004F6481000F03CFE04F66C3001F0D2F918
S315000133E02046FFF73BFFBDE8104001482DF00AB922
S315000133F08C62FE1F38B5174D044601224FF4027147
S3150001340028462DF015F90122072128462DF010F93D
S3150001341004F54670FEF7EAFE04F66C3001F0CEF9CB
S3150001342004F6481000F068F904F66830FEF7DAF899
S31500013430094D04F53C70FDF7EBFF2046FFF742FE10
S3150001344028462DF047FD28462DF05CFC0123A4F803
S31500013450703B38BD645FFE1FFC5FFE1F90F8710B69
S31500013460704700BF094A1378022B0AD859B110B424
S31500013470581C074C107044F8231000205DF8044BCB
S315000134807047072070470220704700BF1027FE1FB4
S315000134901427FE1FFDF75ABF70B5047904B170BD3C
S315000134A0094D01F01DFA2B7853B1084E234656F803
S315000134B02330013403B198472A78E3B29A42F6D809
S315000134C0BDE8704001F098B81027FE1F1427FE1FB3
S315000134D008B5037903B108BD05482DF007FA05487B
S315000134E02DF004FABDE8084003482DF0FFB900BFEE
S315000134F02061FE1F4061FE1F6061FE1F38B5114D40
S315000135001149124C28462EF009FE28462EF0F8FDE8
S315000135100F4D104920462DF027FA20462DF0E6F9E9
S315000135200D4C0E4928462DF01FFA28462DF0DEF9DE
S3150001353020460B492DF018FA2046BDE838402DF0FB
S31500013540D5B900BF0461FE1FF81205002061FE1FF8
S315000135504061FE1F201305006061FE1F7013050008
S31500013560C0130500F8B50446FFF798FD201DFFF7C7
S31500013570F5FC04F58470FEF751FA04F53C70FDF78D
S3150001358021FF04F54570FDF7EFFE04F54670FEF7E1
S3150001359057FE04F5E760FFF70FF804F6D400FFF7CE
S315000135A04BFD04F6D800FEF723F904F6481504F698
S315000135B00410FEF7D3FD284600F046F804F5166020
S315000135C0FEF73CF8294604F66810FFF7DBFB04F624
S315000135D06830FDF7F7FF0125144F154E04F66C30E0
S315000135E001F0A4F82046A4F8705BFFF787FF2A468E
S315000135F04FF4027138462DF01BF82A46384607214A
S315000136002DF016F8294630462EF01CF902213046D7
S315000136102EF018F9074B08491B68084898470849CE
S3150001362008482CF0E9FF2046F8BD00BF645FFE1F85
S31500013630545FFE1FC8180500401205008460FE1F76
S31500013640C81405008C62FE1F70B5264E2649274C0C
S31500013650054630462EF0FEFE254930462EF046FE42
S3150001366030462EF035FE002240F20A7120462CF03B
S31500013670DFFF002240F2034120462CF0D9FF002251
S3150001368040F2044120462CF0D3FF002240F20541CE
S3150001369020462CF0CDFF002240F2064120462CF0B8
S315000136A0C7FF002240F20F4120462CF0C1FF002245
S315000136B040F20B6120462CF0BBFF002240F20C6168
S315000136C020462CF0B5FF002240F20D6120462CF079
S315000136D0AFFF0848FDF7FEFD2846FDF7FBFD28462E
S315000136E070BD00BF8C5FFE1F78110500645FFE1F71
S315000136F0981105002827FE1F10B5074C07492046DB
S315000137002EF0A8FE204606492EF0F0FD2046BDE823
S3150001371010402EF0DDBD00BF8C5FFE1F7811050045
S3150001372098110500022970B509D00022114840F20E
S315000137300B212CF07DFF104B01221A7070BD0C4637
S31500013740012240F20B210B480C4D2CF071FF0A4A65
S31500013750084814704FF4A02300262B6001224FF471
S31500013760403340F20B216B602E722CF061FFAE727A
S3150001377070BD00BF645FFE1FD40AFE1F8827FE1FAF
S31500013780022938B509D00022114840F20A212CF04D
S315000137904FFF104B01221A7038BD0C46012240F230
S315000137A00A210B480C4D2CF043FF0A4A08481470B5
S315000137B04FF4A0234FF44031EB602961002301222D
S315000137C040F20A212B752CF033FF0123AB7538BD6E
S315000137D0645FFE1FD50AFE1F8827FE1F124A01EBF2
S315000137E0410010B402EB80034FF4A02442F82040BC
S315000137F04FF44030002258601A7221B101290AD0D3
S315000138005DF8044B704709485DF8044B012240F20C
S315000138100B212CF00DBF0A4604485DF8044B40F21B
S315000138200A212CF005BF00BF8827FE1F645FFE1F1B
S31500013830F8B501EB4103414D9A0005EB830335F8D9
S3150001384002C0187A0CF1010C1FFA8CFC25F802C093
S315000138500C46E8B1012819D15A88944537D29E7A87
S31500013860374931F8161089B2B1F5006F32D9988807
S31500013870D98888420AD3013292B20021092A998055
S315000138805A8003D90A22587A5A80F8BD587AF8BD67
S3150001389093F80AC02A4F4E0037F81C1040F6FE7EF8
S315000138A089B271451ED837F81C1089B2B1F5C86FB7
S315000138B007D801214FF4A0245972AC5098800846CC
S315000138C0F8BD4FF4A0215872A9509880F8BD9A8886
S315000138D001329A804FF400721A8104B3012C16D07A
S315000138E00220F8BD02225A720CB3012C05D1024600
S315000138F040F20A2113482CF09BFE344405EB840365
S31500013900A400012200212953587A1A72F8BD0246F1
S3150001391040F20A210B482CF08BFE687DF8BD024669
S3150001392040F20B2107482CF083FE687AF8BD224647
S3150001393040F20B2103482CF07BFEDEE78827FE1FB1
S31500013940C027FE1F645FFE1FF8B5534D9FED536AF6
S31500013950AB88DFED536A9BB207EE103AAB889BB298
S3150001396007EE903A4F4BB8EE477A2DED068B9B88C2
S315000139709FED4D9ADFED4DAA9FED4DAAF0EE089A07
S3150001398027EE297A9BB2F8EE677A27EE098A07EEC7
S31500013990103A67EEA97AB8EE477A67EE897A27EE8A
S315000139A0297A6AEEE77A27EE097A0446E7EE067A7D
S315000139B016460F46C7EEA68A18EE900A2FF004FCAB
S315000139C033A3D3E900232FF0E7FE3A4B00281B78F7
S315000139D018BFF0EE4A8A012E08BFF0EE4A8A012B83
S315000139E005D0022B29D0BDEC068B2046F8BD2B88CD
S315000139F09FED317A9BB207EE903AF8EE677A27EEA1
S31500013A00487A67EEA99ADFED2D7A2D4B29EE899A30
S31500013A101B782371A9EE277A2046A8EEEA7AC7EE2B
S31500013A202A7AF4EECA7AF1EE10FA48BFF0EE4A7A33
S31500013A30BDEC068BC4ED007AF8BD00213846FFF7D0
S31500013A40F7FE2071F0B92B889FED1E7ADFED1E6A15
S31500013A509BB207EE903AF8EE677A27EE487A67EE60
S31500013A60A99ADFED1A7A29EE899AA9EE277AC7EE85
S31500013A70267AF5EEC07AF1EE10FA5CBF9FED14AA34
S31500013A8027EE8AAA84ED00AABDEC068B2046F8BD76
S31500013A909A99999999990140C027FE1F0040E745D7
S31500013AA000C02845A027FE1F0000803900E092458E
S31500013AB000000000D40AFE1F00606A4600E899462D
S31500013AC05027FE1F000C6E46A0D3864900BE9B46BA
S31500013AD000007A44FFFFFFFFF8B5534D9FED536A8F
S31500013AE0AB88DFED536A9BB207EE103AAB889BB207
S31500013AF007EE903A4F4BB8EE477A2DED068B9B8831
S31500013B009FED4D9ADFED4DAA9FED4DAAF0EE089A75
S31500013B1027EE297A9BB2F8EE677A27EE098A07EE35
S31500013B20103A67EEA97AB8EE477A67EE897A27EEF8
S31500013B30297A6AEEE77A27EE097A0446E7EE067AEB
S31500013B4016460F46C7EEA68A18EE900A2FF03CFBE2
S31500013B5033A3D3E900232FF01FFE3A4B00281B782D
S31500013B6018BFF0EE4A8A012E08BFF0EE4A8A012BF1
S31500013B7005D0022B29D0BDEC068B2046F8BD6B88FB
S31500013B809FED317A9BB207EE903AF8EE677A27EE0F
S31500013B90487A67EEA99ADFED2D7A2D4B29EE899A9F
S31500013BA01B782371A9EE277A2046A8EEEA7AC7EE9A
S31500013BB02A7AF4EECA7AF1EE10FA48BFF0EE4A7AA2
S31500013BC0BDEC068BC4ED007AF8BD01213846FFF73E
S31500013BD02FFE2071F0B96B889FED1E7ADFED1E6A0C
S31500013BE09BB207EE903AF8EE677A27EE487A67EECF
S31500013BF0A99ADFED1A7A29EE899AA9EE277AC7EEF4
S31500013C00267AF5EEC07AF1EE10FA5CBF9FED14AAA2
S31500013C1027EE8AAA84ED00AABDEC068B2046F8BDE4
S31500013C209A99999999990140C027FE1F0040E74545
S31500013C3000C02845A027FE1F0000803900E09245FC
S31500013C4000000000D50AFE1F00606A4600E899469A
S31500013C505127FE1F000C6E46A0D3864900BE9B4627
S31500013C6000007A44094BDFED0A6A1B889BB207EE16
S31500013C70903AF8EE677AB0EE087A67EE877A002214
S31500013C8087EEA67A027180ED007A70472427FE1F1F
S31500013C9009E49A430B4BDFED0C6A1B889BB207EED6
S31500013CA0903AF8EEE77AB0EE087A67EE877AB3EEE5
S31500013CB0077A67EEA67A002267EE877A0271C0ED6F
S31500013CC0007A70475227FE1F000080390D4BDFED49
S31500013CD00E6A1B889BB207EE903AF8EE677AB0EE51
S31500013CE0087A67EE877A91ED047A67EEA67ADFEDB8
S31500013CF0076A67EE877A002287EEA67A027180ED5F
S31500013D00007A70478627FE1F00008039CDCC0C4013
S31500013D1010B52A4C23780133DBB20E2B237027D939
S31500013D20002323700022264840F203412CF080FC38
S31500013D30227812F0020227D00122214840F20441E2
S31500013D402CF076FC227812F0040226D001221C48BF
S31500013D5040F205412CF06CFC2278194812F0080259
S31500013D6025D0BDE81040012240F206412CF060BC8E
S31500013D70DB07D7D50122124840F203412CF058FC4B
S31500013D80227812F00202D7D10D4840F204412CF0FC
S31500013D904FFC227812F00402D8D1094840F20541BD
S31500013DA02CF046FC2278064812F00802D9D1BDE86B
S31500013DB0104040F206412CF03BBC00BF3827FE1FE5
S31500013DC0645FFE1F10B5324C2378062B05D8DFE859
S31500013DD003F0474A535622043E00DB071DD5012254
S31500013DE02C4840F20B612CF023FC227812F00202DF
S31500013DF01DD00122274840F20C612CF019FC2278D3
S31500013E00244812F004021CD0BDE81040012240F201
S31500013E100D612CF00DBC062323701E48002240F2D2
S31500013E200B612CF005FC227812F00202E1D119484F
S31500013E3040F20C612CF0FCFB2278164812F00402C9
S31500013E40E2D1BDE8104040F20D612CF0F1BB002338
S31500013E50002240F20B610F4823702CF0E9FBE2E7E8
S31500013E6001232370BBE70223002240F20B610948BC
S31500013E7023702CF0DDFBD6E703232370AFE7042381
S31500013E80002240F20B61034823702CF0D1FBCAE7F4
S31500013E903927FE1F645FFE1F624B1B78012B06D07C
S31500013EA0614B1B78012B02D0604B1878704710B517
S31500013EB05E4C207804284CD8DFE800F00381566276
S31500013EC04C005B4A5B4910888B889BB280B2103BE1
S31500013ED0984205D38B889BB21033984240F2818079
S31500013EE010888B889BB280B2103B984204D38B8892
S31500013EF09BB21033984204D940F6FE73984200F201
S31500013F0082804D48002303704C48037050888B888B
S31500013F109BB280B2103B984204D38B889BB210337C
S31500013F2098425AD952888B889BB292B2103B9A42D8
S31500013F3004D38B889BB210339A4203D940F6FE73A1
S31500013F409A4267D83E493F4A00230B7013700120FD
S31500013F50207010BD3C48FDF7E5F91E2871F10003FC
S31500013F6039D30520207010BD002240F209213748BF
S31500013F702CF05EFB3448FDF7ADF90420207010BD2E
S31500013F803148FDF7CFF91E2871F1000323D3284AE2
S31500013F9013889BB2782B2FD8284B1B7863B3264BFB
S31500013FA00121197053889BB2782B1ED8254B1B789B
S31500013FB0DBB1234B01221A700220207010BD0122B1
S31500013FC040F2092121482CF033FB1F48FDF782F905
S31500013FD00320207010BD207810BD1A4B01221A70E3
S31500013FE0B5E7164B0120187090E7154B1A78022A8F
S31500013FF0E2D000221A70DFE70F4B197802291CBFA5
S3150001400000211970CEE70C4B022018700B4B0020D3
S3150001401018707BE70A490B4B0220002208701A70C0
S3150001402095E700BFD40AFE1FD50AFE1FD30AFE1F5D
S315000140307427FE1FC027FE1F5027FE1F8427FE1F61
S315000140405127FE1F8527FE1F4027FE1F645FFE1FA7
S315000140500C4B1B78012B10B5044604D00A4B1B7878
S31500014060012B00D010BD2046FDF75CF9C82871F17F
S315000140700003F7D3054B00222046BDE810401A7015
S31500014080FDF728B9D40AFE1FD50AFE1FD30AFE1F63
S3150001409007EE901AF8EE677AB0EE087A67EE877A3D
S315000140A09FED267A67EE877A9FED257AF4EEC77A39
S315000140B0F1EE10FA0FDA9FED237ADFED235A9FED29
S315000140C0236A70EE606A66EE876A86EEA57A37EE37
S315000140D0207A37EE467AB4EEE77AF1EE10FA02DC90
S315000140E09FED1B0A7047DFED176ADFED1A5A9FED48
S315000140F0166A20EE267AA0EEA57AA7EEC67AB5EE66
S31500014100C07AF1EE10FA14DD9FED136ADFED135A52
S3150001411067EE867A9FED126AE1EE667AE0EEE57A5F
S3150001412067EE867A87EE870AB5EEC00AF1EE10FAD7
S3150001413002D59FED0C0A7047704700BF0000803919
S31500014140CDCC3C4000E0924500B8A146CDCC4C3DDB
S315000141500080BB4400007A4600E8994600606A4642
S3150001416000007A440000000007EE901AF8EE677A24
S31500014170B0EE087A67EE877A9FED267A67EE877A40
S315000141809FED257AF4EEC77AF1EE10FA0FDA9FED7C
S31500014190237ADFED235A9FED236A70EE606A66EE9D
S315000141A0876A86EEA57A37EE207A37EE467AB4EE3E
S315000141B0E77AF1EE10FA02DC9FED1B0A7047DFED9C
S315000141C0176ADFED1A5A9FED166A20EE267AA0EEDF
S315000141D0A57AA7EEC67AB5EEC07AF1EE10FA14DD2D
S315000141E09FED136ADFED135A67EE867A9FED126A29
S315000141F0E1EE667AE0EEE57A67EE867A87EE870A81
S31500014200B5EEC00AF1EE10FA02D59FED0C0A704721
S31500014210704700BF00008039CDCC3C4000500746B6
S3150001422000545D47CDCC4C3D00E0AB4500803B479B
S31500014230006C59470098374700007A440000000097
S315000142402DE9F0411746524A9FED524A9FED527AA7
S315000142509FED526ADFED526ADFED524A9FED525AE7
S315000142609846D388B2F804C09BB207EE903AF8EEAE
S31500014270E77AF0EE085A67EEA57A93880E464B491F
S3150001428067EE847AB1F804E09BB287EE870A0446AA
S3150001429007EE103A1FFA8EF307EE903AB8EE477A18
S315000142A0F8EE677A27EE257A67EEA57A27EE067A83
S315000142B067EE867A26EEC77A2DED028BA7EEA47AF3
S315000142C01FFA8CF382B000EE903A87EE058A9DF8CC
S315000142D02850F8EE600A20EE060A60EEA50A18EEEE
S315000142E0100A60EE860A8DED010ACDED000A2EF068
S315000142F06BFF25A3D3E900232FF04EFADFED2C7ACD
S31500014300DDED000A9DED010A002818BFB0EE678AAF
S31500014310B8F1010F08BFB0EE678AB0EE481A394608
S31500014320304695B9FFF7B4FEDFED227A84ED000A37
S31500014330B4EEE70AF1EE10FA0BDB012520462571F2
S3150001434002B0BDEC028BBDE8F081FFF70DFF84EDF5
S31500014350000ADFED197AB4EEE70AF1EE10FA07DA90
S3150001436000252046257102B0BDEC028BBDE8F08127
S31500014370A5F10105B5FA85F56D092046257102B04D
S31500014380BDEC028BBDE8F0819A9999999999014002
S31500014390C027FE1F0010A44600803B45000080395F
S315000143A000E092450040E74500C02845A027FE1FD2
S315000143B0000000000080BB4400E0AB4530B5064B71
S315000143C01D8883B01346AAB2002500950446FFF75F
S315000143D037FF204603B030BDA027FE1F30B5064B80
S315000143E05D8883B01346AAB2002500950446FFF7FF
S315000143F027FF204603B030BDA027FE1F30B5064B70
S315000144005D8983B01346AAB2012500950446FFF7DC
S3150001441017FF204603B030BDA027FE1F30B5064B5F
S315000144201D8983B01346AAB2002500950446FFF7FD
S3150001443007FF204603B030BDA027FE1F30B5064B4F
S31500014440DD8883B01346AAB2002500950446FFF71E
S31500014450F7FE204603B030BDA027FE1F024B33F8FE
S31500014460110080B2704700BFA027FE1F024B33F830
S31500014470110080B2704700BFC027FE1F0F4B9FED92
S31500014480107A9A891B899BB200EE103A92B207EE16
S31500014490902AB8EE400AF0EE086A20EE260AF8EEF7
S315000144A0677A27EE400A67EEA67ADFED066AA7EE7F
S315000144B0870A20EE260AB0EEC00A7047C027FE1F03
S315000144C0000080398EE35442014B05221A70704771
S315000144D0D30AFE1F80ED040A704700BF014B93ED1E
S315000144E0000A7047DC0AFE1F184A19491388B1F8F9
S315000144F000C001339BB2604480B2092B088013804F
S3150001450022D907EE900AF8EEE77AB0EE087A67EE5E
S31500014510877ADFED106A104B9FED106A87EEA67A57
S3150001452010B40F4C002008801080D3ED007ADFED27
S315000145300D6A84ED007A67EE867A5DF8044BE7EE44
S31500014540267AC3ED007A7047704700BFD227FE1F57
S31500014550D027FE1F00F61F47DC0AFE1F6666663F70
S31500014560D80AFE1FCDCCCC3D08B51A4B1A4A1B788A
S315000145701A49127891F800C0052B194B1B8813D0E4
S31500014580184802F0FD019BB2042920F81C3005D021
S31500014590154B16491B889BB221F81230FFF7B8FB61
S315000145A0BDE80840FFF70EBC114802F0FD019BB2C1
S315000145B0042920F81C30F1D00B490E480B88022A39
S315000145C09BB220F81230E9D1088880B2FFF78CFF40
S315000145D0E4E700BFD30AFE1F3927FE1F3827FE1F57
S315000145E02027FE1F5427FE1F2227FE1F7427FE1FAA
S315000145F0A027FE1FC027FE1F38B53748FCF792FEDD
S3150001460050EA01030ED0FFF7AFFF344B01221A70B7
S31500014610FFF742FC3048FCF75DFEBDE83840304804
S315000146202DF056BE2F4C304A2D4810212DF056FE46
S31500014630224600212A482DF051FE2C4A28481221F3
S315000146402DF04CFE2A4A264811212DF047FE294A13
S31500014650234802212DF042FE204B1A78EAB9264B57
S315000146601B78062B20D0042BD7D1244D24482B8828
S315000146702188046801339BB214FA81F1B3F5FA7FFC
S315000146802B800160C9D31F4B2A80A3FB01311E4B2E
S31500014690C1F34F1119810260BFE700221A70104859
S315000146A0BDE838402DF014BE184D19482B882188D5
S315000146B0046801339BB214FA81F1B3F5FA7F2B80BA
S315000146C00160AAD30F4B2A80A3FB01310E4BC1F324
S315000146D04F1199810260A0E72827FE1FDC27FE1FE4
S315000146E08C5FFE1F2227FE1F2027FE1F5227FE1F5B
S315000146F08627FE1F2427FE1F3927FE1FE027FE1FE0
S31500014700D827FE1FD34D6210C027FE1FDE27FE1FCE
S31500014710D427FE1F014B1878704700BFD40AFE1F2D
S31500014720014B1878704700BFD50AFE1F70B50C4EB5
S315000147300C4D0D4900230360044630462DF07AFFE7
S3150001474030462DF043FF094928462DF083FE0849DE
S3150001475028462DF0CBFD28462DF0BAFD204670BD2A
S31500014760D45FFE1F6C5FFE1FE811050048110500AE
S3150001477068110500014B002019607047E427FE1FF0
S31500014780016070470A4B1A78012A00D07047016808
S31500014790084A0020126818700029F7D007EE902AFF
S315000147A0B8EE670ADFED047A87EE800A084700BF94
S315000147B0E227FE1FE827FE1FC0E1E44C38B50B4D8A
S315000147C00B4C0C4928462DF035FF28462DF0FEFEF0
S315000147D0094920462DF03EFE204608492DF086FD6A
S315000147E02046BDE838402DF073BD00BFD45FFE1FE3
S315000147F06C5FFE1FE81105004811050068110500F0
S3150001480010B582B0694609482CF076F8084A009935
S3150001481013680848CB1A834205D9074C0748236019
S3150001482001231160037002B010BD00BF4061FE1F7D
S31500014830EC27FE1FB8E51600E827FE1FE227FE1F3C
S3150001484038B5254D04460246002128462DF046FD81
S31500014850A21C012128462DF041FD221D02212846D8
S315000148602DF03CFDA21D032128462DF037FD04F154
S315000148700802042128462DF031FD04F10A02052122
S3150001488028462DF02BFD04F10C02062128462DF0B9
S3150001489025FD04F10E02072128462DF01FFD04F126
S315000148A01002142128462DF019FD04F112021321DC
S315000148B028462DF013FD04F11402122128462DF08D
S315000148C00DFD04F11602054801212DF007FD2846CC
S315000148D0BDE838402DF0FCBC6C5FFE1F8C5FFE1FEF
S315000148E000B587B06846FFF7ABFF044B1B680BB1F9
S315000148F06846984707B05DF804FB00BFE427FE1F32
S31500014900F0B5044683B000F6783500F66C3700F64C
S315000149104816FEF727FE04F5E76332463946284670
S3150001492003F012FB04F6681104F5E85000F044F8B0
S3150001493004F500503B4604F66832314600950830CE
S3150001494000F0AEF904F5175004F60411303004F006
S31500014950B3FA04F5005304F51A520021002042E986
S315000149600201002204F5195083F880263830FCF73D
S31500014970B1FC204603B0F0BD10B50446FEF70EFDAE
S315000149802046FEF76BFD00B110BD04F51950383015
S31500014990FCF7B0FC08280AD804F6783000F0B6FD1A
S315000149A004F500500830BDE8104000F099BC04F54C
S315000149B0E85000F0C5F8EFE703469FED0D7B43F89D
S315000149C0081B002200F5427183ED027B83ED067B15
S315000149D01A601A71DA801A7483F8202083F8282065
S315000149E083F8292030338B42EED17047AFF3008034
S315000149F0000000000000000030B5026891B002F12D
S31500014A00200402F14003CDE9014302F1600402F101
S31500014A108003CDE9034302F1A00402F1C003CDE90D
S31500014A20054302F1E00402F58073CDE9074302F57F
S31500014A30907402F5A073CDE9094302F5B07402F54D
S31500014A40C073CDE90B4302F5E07302F5D074CDE9ED
S31500014A500D4302F5F0730F9310AD01AB01E053F86E
S31500014A60042B91F801E0B1F802C011F8044B80F86B
S31500014A703140AB42826080F80CE0A0F80EC000F134
S31500014A803000ECD111B030BD0246002392F831C09E
S31500014A908C4502F1300204D00133102BF6D10220ED
S31500014AA0704703EB430200EB02129268002AF6D02C
S31500014AB0013303EB43031B01C05CA0F10200B0FA12
S31500014AC080F04009704700BF10B50446006848B140
S31500014AD094F82830012B06D0022B1FD08BB100236E
S31500014AE084F8283010BD23790222012B84F828206E
S31500014AF017D0002BF6D12068FCF7ACFB0028EED0CE
S31500014B0010BD2379ABB1012BECD12068FCF7A2FBD8
S31500014B100028E7D1012384F8283010BD2379012B21
S31500014B20E7D1FCF797FB0128D9D02379002BD9D1FE
S31500014B30E1E7FCF78FFB0128ECD02379E3E700BF1F
S31500014B4038B500F1080400F5427520463034FFF708
S31500014B50BBFFAC42F9D138BD1E4AF8B513889BB2EA
S31500014B60002B2ED11C4C1D4D22882988013292B270
S31500014B7089B28A4222801CD3194E1A4932781A4FB9
S31500014B8051F822C041F82200511CC9B2A0EB0C0019
S31500014B9001293860317019D9238033700122134BF2
S31500014BA013491B8803FB02F20120C2F34F022A803C
S31500014BB008701048FCF78EFBBDE8F8400E48FCF77C
S31500014BC089BB1388013B9BB21380F2E70232D2B252
S31500014BD0E5E700BF3828FE1F6A28FE1F5428FE1F7E
S31500014BE06828FE1F6C28FE1F2428FE1F3228FE1F80
S31500014BF03028FE1F0828FE1F4028FE1F08B5204B3F
S31500014C0093ED007AF3EE047AB4EEE77AF1EE10FA58
S31500014C102BDD1C4B1C4A83ED000A93ED007A1378B9
S31500014C20DFED1A6A1A4A1B4907EE903A27EE267AF1
S31500014C30F8EEE77A184B0968C7EE276AB6EE007AEE
S31500014C40C3ED006AD2ED006AD3ED007A67EE877A8A
S31500014C50E6EE877AC2ED007A11B193ED000A884734
S31500014C60BDE808400D48FCF735BB094BD3ED007A8A
S31500014C70B6EE007A67EE877AC3ED007A08BD00BF0B
S31500014C803428FE1F1828FE1F2828FE1F0000F042A8
S31500014C902028FE1F2C28FE1F1C28FE1F5828FE1F39
S31500014CA02DE9F0470446002500264FF0A409924657
S31500014CB0089A83600F464FF00108C0E9001AC260E6
S31500014CC0057446618561C66106624662866280F840
S31500014CD050504A46294654302FF0ACFF4A462946E1
S31500014CE0C4E93E5584F80081C4F8046184F808518A
S31500014CF0C4F80C71C4F81061C4F81461C4F81861E1
S31500014D0084F81C5104F590702FF094FF4A46294609
S31500014D10C4E9715584F8CC81C4F8D06184F8D451C2
S31500014D20C4F8D871C4F8DC61C4F8E061C4F8E46180
S31500014D3084F8E85104F5F6702FF07CFF4A462946BF
S31500014D40C4E9A45584F89882C4F89C6284F8A052F8
S31500014D50C4F8A472C4F8A862C4F8AC62C4F8B0621C
S31500014D6084F8B45204F52E702FF064FF4A462946A2
S31500014D70C4E9D75584F86483C4F8686384F86C532E
S31500014D80C4F87073C4F87463C4F87863C4F87C63B8
S31500014D9084F8805304F561702FF04CFF04F234431C
S31500014DA0C4F82854C4F82C5484F830841E6004F5E1
S31500014DB0886384F83854C4F83C741E6004F2444392
S31500014DC04A461E6004F5896329461E6004F58A6019
S31500014DD084F84C542FF02EFF04F24C434A46C4F893
S31500014DE0F454C4F8F85484F8FC842946C3F8B46032
S31500014DF004F21C5084F80455C4F80875C3F8C06061
S31500014E00C3F8C460C3F8C86084F818552FF012FFC0
S31500014E1004F5A36384F8C885C4F8C055C4F8C4551D
S31500014E205046C3F8B4601349C4F8D47584F8D05514
S31500014E30C3F8C060C3F8C460C3F8C86084F8E45519
S31500014E40FCF7E0FB0C49A068FFF79AFC04F130007F
S31500014E50FCF740FA04F14000FCF73CFA0748FCF77E
S31500014E6039FA0748FCF736FA0648FCF733FA2046C2
S31500014E70BDE8F087594B0100FD4B01004028FE1F9C
S31500014E805828FE1F0828FE1F0A460868024B496873
S31500014E90926807C3704700BFF427FE1F2DE9F04F44
S31500014EA0DFF8ECE007468A460E460546BEE80F00E7
S31500014EB0B9B00DF1040CACE80F00BEE80F00ACE888
S31500014EC00F00BEE80F00ACE80F009EE803000024C7
S31500014ED08CE8030025E0062C30D0311DA4220FA852
S31500014EE096F8009096F801802FF096FE38AB03EB0A
S31500014EF0C40385F8509005F15400A4220FA953E983
S31500014F0037B92FF089FECC2303FB04730134072C38
S31500014F10C3E93EB906F1A80685F8008105F1CC057D
S31500014F202AD0052CD7D19AF848333868042B4FF08C
S31500014F30010108BF0221FEF7F5FBCEE79AF8F0332F
S31500014F40062B1FD09AF8F0539AF8F1430AF57D71B2
S31500014F50A4220FA82FF060FE87F81855DDE90D652C
S31500014F600FA9A42207F21C502FF056FEC7F8C06500
S31500014F70C7F8C45587F8C845386839B0BDE8F04F59
S31500014F80FFF7A2BA38680121FEF7FAFBDAE700BF9C
S31500014F90E095040090ED080A704700BF90ED090AFC
S31500014FA0704700BF00B50B464FF0000C93F850E078
S31500014FB0964503F1CC0308D00CF1010CBCF1070FA7
S31500014FC0F4D1002303725DF804FBCC2303FB0C111F
S31500014FD00123D1F804C191F80821C0F800C002717B
S31500014FE003725DF804FB00BF90ED0A0A704700BF2B
S31500014FF0014B1970704700BF2828FE1F08B5C0680D
S31500015000002100F027FDF3EE047AB4EEE70AF1EE93
S3150001501010FACABF024B9FED030A93ED000A08BDC1
S315000150201828FE1F00000000014B93ED000A70478F
S315000150300028FE1F00F24C4090ED300A704700BF79
S3150001504000F24C4090ED310A704700BF00F5A360B5
S3150001505090ED320A704700BF03F18040013801EB41
S31500015060800CD1ED007A9CED007AF4EEC77AF1EE70
S3150001507010FA4FEA8000F4EEC07A40D5F1EE10FA4C
S3150001508002DB92ED000A7047B4EEC07AF1EE10FA37
S315000150903DD9F4EEC07AF1EE10FA00B572D80020CF
S315000150A000F1010C5FFA8CF301EB8303D3ED007A77
S315000150B0F4EEC07AF1EE10FA03465FFA8CF0EFD9FE
S315000150C09B0003F1040C02EB030E02EB0C000B44F4
S315000150D09EED006AD3ED005AD0ED007A614437EEB9
S315000150E0C67AD1ED006A70EE657A67EE277A36EEFA
S315000150F0E57A87EE870A30EE060A5DF804FBF1EEE3
S3150001510010FABED9B4EEC07AF1EE10FA03DB104400
S3150001511090ED000A7047013B5FFA83FC63464FEA54
S315000151208C0001EB8C0C9CED007AB4EEC70AF1EE13
S3150001513010FA0DDB013BD8B201EB800C9CED007A35
S31500015140B4EEC07AF1EE10FA03464FEA8000F1D9C7
S31500015150013302EB000C02EB8300DCED005AD0EDCB
S31500015160007A01EB830377EEE56A93ED006A70EE50
S31500015170477A36EE477A66EEA77A87EE870A30EEE9
S31500015180250A70474FF4806C4FF47F739BE700BF8D
S31500015190204A13785BB91389DFED1F6A07EE103ACF
S315000151A0B8EEC77AC0EE077A27EEA60A70471389CA
S315000151B09088D18807EE903AF8EEE77AB4EEE70ADE
S315000151C0F1EE10FA15DC07EE900AB8EEE77A00FB6D
S315000151D003F327EE007A5289DFED0F6A01FB0233F2
S315000151E007EE903AF8EEE77A87EE270A20EE260ACE
S315000151F0704707EE101A00FB03F3F8EEC76A07EED5
S31500015200103A70EE677AB8EEC70AB0EE407AA7EEAA
S31500015210A67AE0E7F427FE1F0000C84210B5D0F8D1
S31500015220A83082B00446A3B3027882B3D0F8AC208A
S31500015230D0F8BC1001EB6201D20735D494F8B02046
S315000152406846984723789DED000A042B3FD0052B2D
S315000152502DD184ED310A94F8A43004F15402211DB4
S315000152602046FFF7F9FEF3EE047AD4ED2D6A9FEDA1
S31500015270197A9DF8043084F8B83020EE270ADFED5C
S31500015280167AA6EEA70AC0EE077AC4ED2D7A02B009
S3150001529010BDD0F8AC20D107F9D501780029F6D098
S315000152A0D4F8BC1001EB62010A68D358C6E7062B95
S315000152B0D1D1204694F8A43084ED320A04F1540287
S315000152C0211DFFF7C9FE2046FFF762FFCBE784EDFC
S315000152D0300AC0E70000C8420000A042FFFFFFFFFE
S315000152E0F0B5002183B00446C06800F0B3FB784BEB
S315000152F0E06883ED000A002100F010FC754A764B48
S3150001530082ED000A1A78BAB1227C00211970002AAE
S315000153104DD1724B18682DF035FF02460B466AA136
S31500015320D1E900012EF0D2F82EF09EFAE061A369D0
S3150001533013B194ED070A984704F130052846FBF7A7
S31500015340F1FFC82871F1000380F0988004F140074D
S315000153503846FBF7E7FFC82871F1000342D26048DF
S31500015360FBF7E0FFB0F57A7F71F1000303D35D4AE5
S315000153700023E36113605C48FBF7D4FFB0F57A7F45
S3150001538071F1000306D3594859495A4A002303606B
S315000153900B6013605848FBF7C5FFFA2871F100034B
S315000153A02CBF0123002384F8E43503B0F0BD012AA4
S315000153B0BDD14A4B60691D682DF006FF42A3D3E9B2
S315000153C000232DF059FF064628460F462DF0DAFE3A
S315000153D002460B46304639462EF078F82EF044FA4E
S315000153E0E061A4E721686846FEF754FCDDED007A2A
S315000153F09FED427AD4ED0A6A206867EE877A9FEDBF
S31500015400407AE6EE877A04F1500504F2E456C4EDDB
S315000154100A7AFFF733F8D4ED097ADFED3A6A9FEDA0
S315000154203A7A67EEA67AE0EE077AC4ED097A28465B
S31500015430CC35FFF7F3FEAE42F9D1E068002100F06A
S3150001544009FBF3EE047AB4EEE70AF1EE10FA294B02
S315000154502ADC00221A60234BD4ED077A9FED2A7AC3
S31500015460D3ED006A67EE877A9FED267AE6EE877AB4
S315000154703846C3ED007AFBF72DFF70E768462168D1
S31500015480FEF7F0FBD4ED087A9FED1E7ADDED006A9A
S3150001549067EE877A9FED1C7AE6EE877A2846C4ED99
S315000154A0087AFBF717FF51E7104AD3ED006A9FED23
S315000154B0166AD2ED007A9FED137A67EE867AE6EEEA
S315000154C0877AC3ED007AC6E70000008074D2FA41FC
S315000154D03428FE1FF027FE1F3028FE1F2428FE1F3A
S315000154E04028FE1F5028FE1F5828FE1F1C28FE1F9D
S315000154F01828FE1F0028FE1F0828FE1FCECC4C3E92
S31500015500CCCC4C3FCDCC4C3FCDCC4C3E38B50446F3
S3150001551003F01CFA04F56E7003F018FA04F5EE6058
S3150001552003F014FA04F6583003F0AEFC04F54260B9
S3150001553003F0AAFC04F6E84003F0A6FC04F55B6060
S3150001554003F0A2FC04F6786003F09EFC04F5805596
S3150001555004F5746003F098FC2846083003F094FCC7
S31500015560D5F8EC00FEF7BAFF85ED400A38BD00BF5D
S3150001557007EE901AB8EE677AF1EE046AC7EE267A5C
S3150001558000F5805007EE102AB8EE477A27EE800A1A
S3150001559087EE266A80ED360A80ED376A704700BFCE
S315000155A007EE901AB8EE677A07EE902AF8EE677A58
S315000155B000F58050C7EE276AC0ED386A704700BF14
S315000155C007EE901AB8EE677A07EE902AF8EE677A38
S315000155D000F58050C7EE276AC0ED396A704700BFF3
S315000155E02DE9F04F00F5805583B095F8063185F821
S315000155F004118B4285F8052100F0BF8095ED367ABE
S31500015600D5ED387A67EE277A044617EE900A002B15
S3150001561000F0B680022B00F013812DF0D5FD8046F7
S315000156202046894602F074FE04F56E7630465BEC40
S3150001563010AB02F06DFE504653EC102B59462DF07F
S3150001564065FC04F5EE67824638468B4602F060FE3D
S31500015650504653EC102B59462DF058FC42464B460A
S315000156602DF00AFE2EF000F904F6343306EE100A88
S31500015670D3ED007AD5ED366A95ED387A76EE277A4E
S3150001568004F63C3BC3ED007A66EE877A04F6383AB7
S3150001569017EE900A2DF098FD80462046894602F0C5
S315000156A057FE30468DED000B02F052FEDDE900019A
S315000156B053EC102B2DF02AFC02460B463846CDE959
S315000156C0002302F045FEDDE900231046194653EC9E
S315000156D0102B2DF01BFC42464B462DF0CDFD2EF036
S315000156E0C3F8DBED007A07EE100A77EE277A95ED1F
S315000156F0367ACBED007AD5ED387A67EE277A17EE52
S31500015700900A2DF061FD80462046894602F040FE52
S3150001571030468DED000B02F03BFEDDE9000153EC56
S31500015720102B2DF0F3FB02460B46CDE9002338463C
S3150001573002F02EFEDDE900231046194653EC102B2C
S315000157402DF0E4FB42464B462DF096FD2EF08CF8EB
S31500015750DAED007A07EE100A77EE277ACAED007ABB
S31500015760204603F09DF9304603F09AF9384603F0D6
S3150001577097F995F8043185F8063103B0BDE8F08F45
S315000157802DF022FD064620460F4602F0C1FD3046A9
S3150001579053EC102B39462DF06FFD2EF065F8D5ED43
S315000157A0366A95ED387A26EE877A04F6343307EEB3
S315000157B0900A17EE100A93ED007A77EE277AC3ED79
S315000157C0007A2DF001FD064620460F4602F0C0FD87
S315000157D0304653EC102B39462DF04EFD2EF044F891
S315000157E0D5ED366A95ED387A26EE877A04F63C339E
S315000157F007EE900A17EE100A93ED007A77EE277AF4
